:020000040800F2
:1000000000050020010100082B1B000859170008FB
:10001000291B00086D070008031D000800000000F0
:10002000000000000000000000000000AF1B0008FE
:100030006F07000800000000AD1B0008B11B00089E
:100040001B0100081B0100081B0100081B01000820
:100050001B0100081B0100081B0100081B01000810
:10006000710700081B0100081B0100081B010008A4
:100070001B0100081B0100081B0100081B010008F0
:100080001B0100081B0100081B0100081B010008E0
:100090001B0100081B0100081B0100081B010008D0
:1000A000151C0008211C00081B0100081B0100088A
:1000B0001B0100081B0100081B0100081B010008B0
:1000C0001B0100081B0100081B0100081B010008A0
:1000D0001B0100081B0100081B0100081B01000890
:1000E0001B0100081B0100081B010008DFF80CD0F1
:1000F00000F02AFB004800473927000800050020CF
:100100000648804706480047FEE7FEE7FEE7FEE7B1
:10011000FEE7FEE7FEE7FEE7FEE7FEE7131C00084A
:10012000ED000008202A04DB203A21FA02F0002129
:10013000704721FA02F3D040C2F1200291400843F7
:1001400019467047D2B201E000F8012B491EFBD2DC
:1001500070470022F6E710B513460A4604461946D2
:10016000FFF7F0FF204610BD2DE9FE4F804681EAE3
:100170000300C00F0C46009021F0004123F0004521
:10018000B8EB0200A94105D24046214690461C46E4
:100190000B46024623F00040104347D0270DC7F31B
:1001A0000A00C3F30A510290401A019040286BDA0A
:1001B000C3F3130040F4801B0098924620B1002343
:1001C000D2EB030A63EB0B0B01985946C0F14002D6
:1001D000504600F065F906460D4650465946019ACC
:1001E00000F06DF910EB08006141002487EA11521C
:1001F00084EAE7731A4340D0009A62B3019A012A55
:100200004FEA075215DC001B61EB02014FF0004280
:1002100002EA0752CDE90042001C41F58011324646
:100220002B4600F0A4F903B0BDE8F08F404621460C
:10023000F9E7001B61EB0201001C41F58013001877
:100240005B412018A2F5001747EB030140EAD57087
:10025000B6196D4111E06D084FEA360645EAC075E2
:100260004FEA0752001B61EB0201001C41F58011AF
:1002700049084FEA30000019514132462B4603B07D
:10028000BDE8F04F00F064B900980122400000235F
:10029000D0EB020263EBE073009821464FEAE07472
:1002A000B8EB000061EB0401E9E783F000435BE792
:1002B00081F0004158E72DE9FE4F81EA030404F084
:1002C000004421F0004100944FF0000B23F0004364
:1002D00050EA01045ED052EA03045BD0C3F30A542F
:1002E000C1F30A552C44A4F2F3340194A0FB025448
:1002F000C1F3130141F48011C3F3130343F48013DA
:1003000001FB024400FB034E840A970A44EA81542D
:1003100047EA8357A4FB076802958D0A05FB07850A
:100320004FEA932C04FB0C542705029D4FEA065814
:1003300047EA1637B5EB08056EEB070C870E920EF1
:1003400047EA811742EA8312A7FB0201B6EB0B01D1
:1003500064EB00042B0D43EA0C335E1844EB1C5095
:10036000DA465146E7FB0201C5F313044FEA0B33AB
:1003700043EA14534FEA0432019C43EA0603A4F112
:100380000C040294009CCDE900B400F0F0F803B036
:10039000BDE8F08F00200146F9E70EB540F2334189
:1003A00002910021CDE900110A460B4600F0DFF86A
:1003B00003B000BD00F0004230F000400AD0C10D93
:1003C00001F56071C0F3160042EA0151C20840070E
:1003D0001143704700200146704701F0004330B4DC
:1003E00021F0004150EA010206D00A0DA2F5607228
:1003F000C1F31301002A02DC30BC00207047440F17
:1004000044EAC104C100E01830BC00EBC25000F067
:1004100068B830B50B46014600202022012409E0CF
:1004200021FA02F59D4205D303FA02F5491B04FAAD
:1004300002F52844151EA2F10102F1DC30BD2DE9C0
:10044000F05F0546002092469B4688460646814658
:1004500040241BE02846414647462246FFF762FEFD
:1004600053465A46C01A914110D3114618462246A7
:1004700000F016F82D1A67EB01084F4622460120BE
:10048000002100F00DF817EB00094E41201EA4F1E9
:100490000104DFDC484631462A464346BDE8F09F6A
:1004A000202A04DB203A00FA02F100207047914034
:1004B000C2F1200320FA03F3194390407047202A29
:1004C00006DBCB17203A41FA02F043EAE07306E07C
:1004D00041FA02F3D040C2F120029140084319468C
:1004E00070470029A8BF7047401C490008BF20F092
:1004F0000100704710B4B0FA80FC00FA0CF050EA2A
:10050000010404BF10BC704749B1CCF1200421FAAA
:1005100004F411FA0CF118BF012121430843A3EBA5
:100520000C01CB1D4FEA00614FEA102042BF0020B2
:1005300010BC704700EBC35010440029A4BF10BC8E
:100540007047401C490008BF20F0010010BC7047F4
:1005500010B5141E73F1000408DA401C41F10001CB
:1005600092185B411A4301D120F0010010BD2DE922
:10057000F04D92469B4611B1B1FA81F202E0B0FA19
:1005800080F220329046FFF78BFF04460F4640EA88
:100590000A0041EA0B0153465A46084313D011465C
:1005A00053EA010019D0C8F140025046FFF7BAFDE6
:1005B00005460E46504659464246FFF771FF08432E
:1005C00005D0012004E020463946BDE8F08D00202A
:1005D000054346EAE0762C4337430A986305E40A6C
:1005E000A0EB08000022FD0A44EA47540A3002D575
:1005F00000200146E9E7010510196941DDE90845D8
:1006000000196941BDE8F04DA2E72DE9F04D81EAFE
:10061000030404F0004B21F0004514464FF0000A9B
:1006200023F0004150EA050220D054EA01021DD017
:10063000C5F30A570246C5F31303C1F31300C1F310
:100640000A5640F4801543F48013A7EB0608101BEC
:10065000D64608F2FD3873EB050002D308F1010815
:1006600001E092185B41B8F1000F03DA0020014667
:10067000BDE8F08D00204FF48011064684460EE060
:10068000171B73EB050705D3121B63EB050306432A
:100690004CEA010C49084FEA300092185B4150EADD
:1006A0000107EDD152EA030012D082EA040083EA86
:1006B0000501084305D0101BAB4106D201220023DF
:1006C00006E000224FF0004302E06FF001025310F9
:1006D0001AEB06004CEB085110EB0A0041EB0B0142
:1006E000BDE8F04DFFF734BFC1F30A52C1F3130167
:1006F00040F2FF3341F480119A4202DA00200146B1
:10070000704740F233439A42A2F2334202DC524233
:10071000FFF708BDFFF7C4BE30B5041E71F1000439
:1007200004DB4FF00044404264EB0101141E73F1FE
:10073000000405DB1C464FF00043524263EB040308
:10074000994208BF904230BD064C074D06E0E06874
:1007500040F0010394E8070098471034AC42F6D308
:10076000FFF7C8FC5828000878280008FEE7704703
:10077000042000F055B8000070B5044600F056F9AA
:100780000546601C02D004480078044400F04EF98D
:10079000401BA042FAD370BD1C0000202DE9F0419F
:1007A000042828D1194D0421284600F035F9184CA9
:1007B000012822D00421284600F02EF900281AD161
:1007C000204600F07BFE2068406A124D86B22E80E3
:1007D0006868FFF7EFFD04460F463046FFF7DDFD82
:1007E0000D4A0E4BFFF767FD22463B46FFF75DFDC6
:1007F000FFF7F3FDE860BDE8F08121680020486262
:10080000BDE8F041024800F031BE000000080140A0
:1008100080000020000000209CC420B07268913F3E
:10082000044910B50A68024202D00860FFF7B6FF1B
:1008300010BD0000140401402DE9F84FDFF8B89115
:100840000024A9F1040B23460F2709F1040AABF198
:10085000040EC9E00125A5402A40AA427DD1674E79
:10086000D1F804C0ACEB0608B44532D014DCBCF1BE
:10087000030F3AD009DCBCF1000F2AD0BCF1010F04
:100880001CD0BCF1020F31D11DE0BCF1110F17D00B
:10089000BCF1120F2AD119E0B8F5881F19D006DC77
:1008A000B8F5803F15D0B8F5801F1FD111E0B8F51D
:1008B000001F0ED0B8F5041F18D10AE0CB6815E070
:1008C000CB681B1D12E0CB6808330FE0CB680C33FC
:1008D0000CE08B682BB1012B4FF0080303D045616E
:1008E00004E0042302E0056100E00023FF2A01D8B0
:1008F000064601E000F104064FEA840501D9A5F19E
:100900002005D6F8008007FA05FC28EA0C0803FA4F
:1009100005F548EA0508C6F800804D68ED0062D587
:10092000374DAE6946F00106AE61AD6924F00306AD
:1009300005F001050095334D06EB050CDCF8085079
:10094000A607360F07FA06F825EA0805DFF8B8808B
:10095000404503D14FF0000817E044E0DFF8AC80D9
:10096000404502D14FF001080FE0DFF8A480404578
:1009700002D14FF0020808E0DFF89880404502D12C
:100980004FF0030801E04FF0040808FA06F848EABF
:100990000508CCF808804D68D9F80060ED024D4696
:1009A00001D5164300E096432E604D68DAF80060EA
:1009B000AD02554601D5164300E096432E604D68C2
:1009C000DBF80060AD035D4601D5164300E09643B9
:1009D0002E604D68DEF80060ED03754601D51643C4
:1009E00000E096432E60641C0D682A46E5407FF4C3
:1009F00031AFBDE8F88F000008040140000011107D
:100A0000001002400000014000080140000C0140BD
:100A100000100140001401408068084000D001200F
:100A200070470AB1016170470904FBE7014880681B
:100A3000704700001C00002070B5040025D094F819
:100A40003D00002520B984F83C50204600F04EF9C6
:100A5000242084F83D002068016821F00101016034
:100A60002068016841F4004101602068016821F4B8
:100A70000041016000F096FA4D4A6168914201D848
:100A80004C4900E04C49884201D2012070BD4B49DD
:100A90002368B0FBF1F15E6826F03F060E435E600E
:100AA0006368934206D94FF4967359434FF47A73AF
:100AB000B1FBF3F12368491C1E6A26F03F0631435F
:100AC00019626168914210D84900401EB0FBF1F2F2
:100AD000521CC2F30B02042A01D2042022E0B0FB14
:100AE000F1F0401CC0F30B001CE0A268F2B301EB74
:100AF000C10303EB0116431EB3FBF6F35B1C43F487
:100B000080431B0549D092B301EBC10202EB0111F6
:100B1000401EB0FBF1F0401CC0F30B0040F48040DD
:100B200040F400402168CA694CF6FF739A431043B1
:100B3000C861D4E9071001432068026822F0C002AE
:100B400011430160D4E9030101432068826848F23F
:100B5000FF339A4311438160D4E9050108432168BA
:100B6000CA6822F0FF021043C86001E00EE016E000
:100B70002068016841F0010101602564202084F8AB
:100B80003D00256384F83E50002070BD01EB410616
:100B9000431EB3FBF6F35B1CB3E70120C2E701EB96
:100BA0004101401EB0FBF1F0401CC0F30B00B7E761
:100BB000A086010080841E0000093D0040420F0015
:100BC0002DE9F84F1F4690468A460446DDF82890E6
:100BD000FFF72CFF054694F83D0020287FD119230C
:100BE000012240492046009500F048FE002876D1B9
:100BF00094F83C00012872D0012084F83C00206861
:100C00000168C90703D1016841F001010160206852
:100C1000016821F400610160212084F83D0010206A
:100C200084F83E0000262664C4F824806785608D21
:100C300020852D48E0622B464A465146204600F06A
:100C4000A3FD90B9206841698069009036E02A468A
:100C50004946204600F0B8FE50B1206C042804D16B
:100C60002068016841F4007101600120BDE8F88F3F
:100C7000606A216800780861606A401C6062618D6A
:100C8000491E6185218D491E89B2218522685369DB
:100C9000DB435B070BD451B100781061606A401CE4
:100CA0006062608D401E6085208D401E20852A4632
:100CB0004946204600F0B6FD0028CED1208D002800
:100CC000C5D154F83D0B016841F40071016020204A
:100CD00004F81E09E67766770020C7E7FFE70220E1
:100CE000C4E70000020010000000FFFF10B586B04E
:100CF0000021009101910291039100680F498842FF
:100D00001AD10F4CA06940F00800A061A0696946A3
:100D100000F008000490C0200090122001900320F1
:100D200003900848FFF788FDE06940F40010E06197
:100D3000E06900F40010049006B010BD00540040BB
:100D400000100240000C0140024881680278114402
:100D5000816070471C000020074810B5016841F011
:100D600010010160032000F075F8002000F006F883
:100D700000F024F8002010BD0020024070B50D4D99
:100D800004464FF47A712878B1FBF0F00A490968FB
:100D9000B1FBF0F000F0CCFA48B9102C07D20022D9
:100DA0002146501E00F036F800206C6070BD012016
:100DB00070BD00001C000020280000200C4808B571
:100DC000816941F001018161816901F001010091B6
:100DD000C16941F08051C161C06900F0805000904C
:100DE0000448416821F0E06141F00071416008BDB4
:100DF0000010024000000140002809DB00F01F0243
:100E0000012191404009800000F1E020C0F800116C
:100E100070470000F0B40E4B1B680C46C3F302236E
:100E2000C3F10705042D00D90425191D072901D296
:100E3000002300E0DB1E012606FA05F1491E2140D1
:100E400099409E40761E16403143F0BC00F06EBFC4
:100E50000CED00E0064900F0070208684FF6FF03BA
:100E6000184040EA0220034A10430860704700001F
:100E70000CED00E00000FA052DE9F0470F460500F3
:100E800061D0434E306800F00700B84209D23068A4
:100E900020F0070038433060306800F00700B842A7
:100EA00051D128683B4C810712D5400703D56068B3
:100EB00040F4E06060602878000703D5606840F483
:100EC000605060606068A96820F0F00008436060CE
:100ED0002878C00728D06868012810D02168022827
:100EE00010D0890700292EDA616821F0030101433F
:100EF0006160FFF79BFD804641F288390DE0216873
:100F00008903EFE78901EDE7FFF790FDA0EB08010A
:100F1000494502D90320BDE8F0876068696800F0A0
:100F20000C00B0EB810FEFD1306800F00700B84241
:100F30000BD9306820F0070038433060306800F08B
:100F40000700B84201D00120E5E72878400705D521
:100F50006068E96820F4E060084360602878000772
:100F600006D56068296920F4605040EAC1006060DD
:100F700000F028F86168084AC1F30311515CC840C9
:100F80000649086006480068FFF7F8FE0020C2E73F
:100F900000200240001002403E28000828000020E7
:100FA000200000200448054900684968044AC1F34C
:100FB0000221515CC8407047280000200010024008
:100FC0004E2800080E4A51680E4801F00C03042B0D
:100FD00011D0082B0FD10C48C1F38343C903C05C67
:100FE0000AD55168084AC1F34041921E515C054A36
:100FF0005043B0FBF1F0704704494843704700008C
:101000000010024000127A002E28000800093D005E
:101010002DE9F84F040070D02078C04DC00749D0AA
:101020006868C0F38100012807D06868C0F38100B8
:10103000022809D16868C00306D52868800339D51D
:1010400060680028E7D035E06068B0F5803F0BD0DD
:1010500010B1B0F5A02F11D0286820F4803028609E
:10106000286820F4802002E0286840F4803028605E
:10107000606890B1FFF7DAFC06460AE0286840F4A1
:1010800080202860F0E700BFFFF7D0FC801B6428B9
:1010900073D828688003F7D50CE0FFF7C7FC064635
:1010A00005E000BFFFF7C2FC801B6428F0D8286869
:1010B0008003F7D420789A4E80074FF001094FF053
:1010C000000839D5686810F00C0F07D06868C0F3C5
:1010D0008100022809D16868C00306D42868800707
:1010E00014D52069012808D110E02069B0B1C6F8F4
:1010F0000090FFF79BFC074605E00AE1FFF796FC2E
:10110000C01B0228C4D828688007F7D52868616901
:1011100020F0F80040EAC10028600DE0C6F8008029
:10112000FFF784FC074604E0FFF780FCC01B0228A1
:1011300023D828688007F7D4207800072CD5794871
:10114000A169D9B1C0F80090FFF770FC074604E030
:10115000FFF76CFCC01B02280FD8686A8007F7D520
:1011600071484FF4FA510068B0FBF1F0009000BFF5
:101170000098411E0091FAD20EE080E0C0F8008095
:10118000FFF754FC074604E0FFF750FCC01B0228A1
:1011900075D8686A8007F7D42078400760D5E86979
:1011A0000027C00008D4E86940F08050E861E86991
:1011B000012700F0805000905C480168C90513D4F5
:1011C0000168834641F480710160FFF72FFC82467D
:1011D00006E000BFFFF72AFCA0EB0A0064284ED807
:1011E000DBF80000C005F5D5E06801280AD008B199
:1011F000052813D0286A20F001002862286A20F010
:10120000040002E0286A40F001002862E06841F230
:10121000883B98B1FFF70AFC82460BE0286A40F051
:1012200004002862EEE700BFFFF700FCA0EB0A0114
:1012300059455AD8286A8007F6D50CE0FFF7F6FB27
:10124000824605E0FFF7F2FBA0EB0A0159454CD8B6
:10125000286A8007F6D41FB1E86920F08050E86161
:10126000E06988B36968C1F38101022944D002288A
:10127000C6F8608004D0FFF7D9FB044638E034E0BC
:10128000FFF7D4FB074604E0FFF7D0FBC01B0228A2
:101290002BD828688001F7D4206AB0F5803F05D1AB
:1012A0006868A16820F4003008436860D4E9080148
:1012B0000843696821F4741108436860C6F86090B7
:1012C000FFF7B4FB044606E025E000BFFFF7AEFBE6
:1012D000001B022809D828688001F7D51BE000BF51
:1012E000FFF7A4FB001B022802D90320BDE8F88FFA
:1012F00028688001F4D40EE00128F7D06868226ADB
:1013000000F48031914204D1616A00F47010884287
:1013100001D00120EAE70020E8E7000000100240C9
:101320000000424280044242280000200070004039
:1013300010B5401EB0F1807F01D3012010BD4FF0E9
:10134000E02460610F21601700F0F0FC0020A06134
:1013500007202061002010BD7047704770B590F8DD
:101360003C20012A26D0012480F83C40022280F84B
:101370003D2003685A689D6822F070060A6832436F
:101380005A600D4B02689A4208D0B2F1804F05D0E6
:101390000A4B9A4202D00A4B9A4204D1496825F07E
:1013A00080031943916080F83D40002180F83C1093
:1013B000084670BD022070BD002C014000040040B2
:1013C0000008004010B5040003D094F83D0010B1AF
:1013D00007E0012010BD002084F83C00204600F00A
:1013E0001FF8022084F83D00211D206800F01EFC3B
:1013F000012084F8460084F83E0084F83F0084F819
:10140000400084F8410084F8420084F8430084F8E6
:10141000440084F8450084F83D00002010BD000021
:1014200008B500680F4988421AD10F48816941F414
:10143000006181618069002200F400600090012158
:101440001820FFF7E7FC1820FFF7D6FC0022012147
:101450001920FFF7DFFCBDE808401920FFF7CCBCDE
:1014600008BD0000002C01400010024090F83D1023
:10147000012901D001207047022180F83D10006849
:101480000B49884208D0B0F1804F05D00949884205
:1014900002D00949884204D1816801F00701062978
:1014A00003D0016841F00101016000207047000095
:1014B000002C0140000400400008004001680A6A56
:1014C00041F211131A4207D10A6A9B101A4203D142
:1014D0000A6822F001020A60012180F83D10002014
:1014E000704770B5044690F83C000025012817D0DD
:1014F000012684F83C60022084F83D002068826860
:1015000022F0770222F47F4282600868502838D0A7
:101510000DDC20284FD005DC90B3102811D14AE013
:10152000022070BD302846D040280AD13BE0602818
:101530002FD070280DD0B0F5805F03D0B0F5005FDC
:1015400012D0012584F83D60002084F83C00284634
:1015500070BDCB68D1E90121206800F09DFB2068B7
:10156000816841F0770109E0CB68D1E90121206869
:1015700000F092FB2068816841F480418160E1E7DE
:1015800019E0CA684968206800F098FB502120687B
:1015900006E0CA684968206800F0A1FB6021206865
:1015A00000F084FBCEE7CA684968206800F086FB3B
:1015B00040212068F4E7226801461046F0E77047B2
:1015C00070B50446006801694FF00005C9438907FA
:1015D00015D4C168C943890711D4E91E01610120EE
:1015E0002077206880698007204602D0FFF7E7FF58
:1015F00004E000F098F8204600F096F8257720687F
:101600000169C943490717D4C168C943490713D4BD
:101610006FF004010161022020772068806910F4D6
:10162000407F204602D0FFF7CAFF04E000F07BF8BD
:10163000204600F079F8257720680169C943090739
:1016400016D4C168C943090712D46FF008010161BB
:10165000042020772068C0698007204602D0FFF769
:10166000AEFF04E000F05FF8204600F05DF825775B
:1016700020680169C943C90617D4C168C943C906AE
:1016800013D46FF010010161082020772068C06931
:1016900010F4407F204602D0FFF791FF04E000F0F5
:1016A00042F8204600F040F8257720680169C943D8
:1016B000C90708D1C168C943C90704D1891E01619E
:1016C000204600F032F820680169C943090609D4B0
:1016D000C168C943090605D46FF080010161204645
:1016E000FFF73AFE20680169C943490609D4C16879
:1016F000C943490605D46FF040010161204600F05E
:1017000015F820680169C94389060BD4C168C9432B
:10171000890607D46FF0200101612046BDE87040C2
:10172000FFF71BBE70BD70477047704770470000E1
:1017300010B5084C012202212046FFF772F9012062
:10174000FFF71AF820460022BDE810400221FFF7FB
:1017500068B9000000080140FEE701684A69D24309
:1017600052050FD46FF480624A61002140F8301FA7
:10177000202242738173026942F004020261017304
:101780000120704700207047F8B50446C06A1E4625
:101790000D461746082807D0012805D010F5803FD0
:1017A00002D0206B122804D12068016841F48071B6
:1017B0000160134600224FF001112046009600F010
:1017C0005DF840B120680068C00502D54FF4007094
:1017D00020640320F8BD2069B0F5804F0ED00620AC
:1017E000216800EAD51040F0F000086133463A461F
:1017F0000B49204600F08AF878B902E005F0FE00B7
:1018000000E0E8B221680861054933463A46891F7D
:10181000204600F07BF80028DCD00120F8BD000055
:101820000800010070B516460D4604461EE020462D
:10183000FFF793FF08B1012070BD681C16D0FFF7B9
:10184000F5F8801BA84200D885B920684069C043DC
:1018500040070BD5002044F8300F20216173A0739E
:10186000216941F0200121612073E4E7206840698B
:10187000C0434007DBD4002070BD00002DE9F047D5
:10188000984617460D460446C1F30746DDF82090FA
:101890002AE000BFB8F1FF3F26D0FFF7C7F8A0EB62
:1018A0000901414502D8B8F1000F1DD12068012E71
:1018B00016D0806925EA00000004000C12D0002038
:1018C000B84211D1002044F8300F20216173A07379
:1018D000216941F02001216120730120BDE8F087DA
:1018E0004069E7E70120EBE72068012E0AD0806914
:1018F00025EA00000004000C06D00020B842C9D040
:101900000020EBE74069F3E70120F7E72DE9F04716
:10191000984616460D4604464FF000094FF0200A3F
:10192000C1F3074723E020684069C043400515D450
:101930002068016841F40071016021686FF48060E3
:101940004861C4F8309084F83DA084F83E90216C42
:1019500041F00401216484F83C9021E0701C06D021
:10196000FFF764F8A0EB0800B04203D816B1012FCE
:101970001FD021E02068012F15D0806925EA0000E2
:101980000004000C18D000BF44F8309F84F80DA06C
:1019900084F80E90216941F02001216184F80C90B7
:1019A0000120BDE8F087406925EA00000004000C32
:1019B000EAD12068406901E02068806925EA0000DA
:1019C0000004000CAFD1ECE770B516460D46044696
:1019D0001EE02046FFF7C1FE08B1012070BD681C63
:1019E00016D0FFF723F8801BA84200D885B92068DD
:1019F0004069C04300060BD5002044F8300F202179
:101A00006173A073216941F0200121612073E4E733
:101A100020684069C0430006DBD4002070BD000090
:101A2000F0B585B0002423480094019402940394F7
:101A3000816941F020018161816901F020010491F7
:101A4000816941F004018161816901F0040104911F
:101A5000816941F0080181618069174F00F0080039
:101A60000490002202213846FEF7DBFF0125CDE974
:101A70000054694638460295FEF7DEFE0226CDE99F
:101A80000065CDE9024669463846FEF7D5FE0420DA
:101A900000900A48CDE9010669463846FEF7CCFEBB
:101AA000002201210820FFF7B5F90820FFF7A4F96B
:101AB00005B0F0BD001002400008014000003110E8
:101AC00010B586B000241748009401940294039442
:101AD00004941349059401604721C0E9011449F6B3
:101AE0003F41C0E9031444618461FFF76BFC08B116
:101AF00072B6FEE74FF48050009069460948FFF740
:101B0000F0FC08B172B6FEE7049404A905480594F8
:101B1000FFF724FC002801D072B6FEE706B010BD26
:101B2000002C014080000020FEE7FEE710B5FEF724
:101B300073FF114C6178884203D06070FEF776FF26
:101B40006060FEF773FF6168401A0F280DD360785C
:101B5000A0702178884208D040B100F013F80749FE
:101B60000878401C0870A078207010BD044A1178D5
:101B7000491C1170F8E7000014000020100000203C
:101B80001100002010B5064C2088FEF706FC054A1F
:101B9000054BFEF790FBFEF720FC606010BD0000D7
:101BA000000000209CC420B07268913F70477047CD
:101BB000FFF7CAB830B58FB028216846FEF7C9FADA
:101BC00014210AA8FEF7C5FA01210804CDE9001086
:101BD0000024029402250491CDE907504FF4E0104F
:101BE00009906846FFF714FA08B172B6FEE70F20B5
:101BF000CDE90A054FF48060CDE90C4002210AA826
:101C00000E94FFF739F9002801D072B6FEE70FB045
:101C100030BD70470148FFF7D3BC000080000020B2
:101C20000148FFF7CDBC000080000020F0B502683D
:101C3000164B174C174D4FF08047984205D0B842CD
:101C400003D0A04201D0A84203D122F070064A6816
:101C50003243984205D0B84203D0A04201D0A842F6
:101C600003D122F44074CA6822434C6922F08002F6
:101C7000224302608A68C2620A688262984201D185
:101C80000969016301214161F0BD0000002C0140A0
:101C9000000400400008004010B5846842EA0322B6
:101CA00024F47F440A432243826010BD826822F0FC
:101CB00070020A4342F007018160704710B5036A61
:101CC000046A24F001040462846924F0F00444EA04
:101CD000021423F00A020A438461026210BD10B5A7
:101CE000036A046A24F010040462846923F0A003E8
:101CF00024F4704444EA023243EA01118261016231
:101D000010BDFEE70FB4084B10B504A902AA039852
:101D100000F0EEF8044602A9002000F080FC204606
:101D200010BC5DF814FB00001F2600080907090E0F
:101D3000002804DB00F1E02080F80014704700F078
:101D40000F0000F1E02080F8141D704702E008C881
:101D5000121F08C1002AFAD170477047002001E025
:101D600001C1121F002AFBD1704700002DE9FF5F5F
:101D700082B00021DDE90430020DDDF840B00343FC
:101D800018D044F61050A2F2FF32424315141198B5
:101D900001281FD0A5EB0B00401C5FEA000A4FF0A2
:101DA00000064E4FDFF83891B046504615D5CAF1BF
:101DB000000413E0119801244AA3012801D16FEA1D
:101DC0000B010298119AC0E90031C0E9024206B045
:101DD000BDE8F09FCBF10000DFE704460021404A58
:101DE000491842EB0450CDE9001012E0E00707D09B
:101DF00032463B4640464946FEF75DFA80468946F4
:101E000032463B4610461946FEF755FA06460F463F
:101E10006410002CEAD1DDE90401DDE90023BAF108
:101E2000000F06DAFEF747FA42464B46FEF743FA42
:101E300005E0FEF7EAFB42464B46FEF7E6FB0446AA
:101E40000E460022284BFEF767FC03D84FF0FF3008
:101E5000014607E00022254B20463146FEF784F973
:101E6000FEF742FC102409E0002C0ADB0A220023C2
:101E7000FEF7E5FA039B30321A55641E50EA010260
:101E8000F2D1641C039AC4F111031444119A012A7B
:101E900003D0012208430DD10AE0084304D00020FA
:101EA0004FF0110B119072E7A3EB0B056D1E0DE0C7
:101EB0005B4504DD4FF0000205F1010504E003DAA3
:101EC0004FF00002A5F10105002AECD0029811990B
:101ED000C0E90231C0E9004579E700000000144084
:101EE0000000F03F300000000000F0430000E03F41
:101EF0002DE9FF4F95B09B468946064600250FE227
:101F0000252877D100242746F84A0121059400E0CE
:101F1000044316F8013F203B01FA03F01042F7D1C9
:101F200030782A2811D06FF02F033078A0F13002DA
:101F3000092A16D8059A44F0020402EB820203EB48
:101F400042021044761C0590EFE759F8042B0592E5
:101F5000002A03DA504244F40054059044F002048D
:101F6000761C30782E2816D116F8010F44F00404A0
:101F70002A280DD06FF02F023078A0F13003092B02
:101F800009D807EB870302EB4303C718761CF3E776
:101F900059F8047B761C30786C280FD006DC4C286E
:101FA00017D068280DD06A2814D104E0742810D006
:101FB0007A280FD10DE044F400140AE044F48014B0
:101FC00001E044F440147278824202D104F5801496
:101FD000761C761C307866280BD013DC582877D016
:101FE00009DC002875D04528F6D04628F4D04728CB
:101FF0001AD19DE118E0632835D0642879D065288E
:1020000012D195E1702873D008DC6728F1D06928D7
:102010006FD06E280DD06F2806D1B5E073282CD074
:10202000752875D0782874D05A46179990476D1C3A
:1020300075E1C4F30250022809D003280DD0D9F865
:10204000001004280DD00D6009F1040967E1D9F8EA
:102050000010EA17C1E90052F6E7D9F800100D8028
:10206000F2E70D70F0E719F8041B8DF8001000205E
:102070008DF80100EA46012003E059F804AB4FF067
:10208000FF3061074FF0000102D40DE008F10101BB
:102090008846B9420FDA8045F8DB1AF808100029A3
:1020A000F4D108E008F1010188468142FADB1AF810
:1020B00008100029F6D105985B46A0EB08072146D9
:1020C0003846179A00F094FA284400EB080507E018
:1020D0004DE029E10DE01AF8010B5A461799904797
:1020E000B8F10108F7D25B4621463846179A13E14A
:1020F00042E00A220092C4F302524FF0000A022A80
:1021000008D059F804CB032A4FEAEC710AD00DE04D
:1021100029E02AE009F1070121F00702F2E802C1F3
:10212000914609E00FFA8CFC4FEAEC71042A03D1C6
:102130004FFA8CFC4FEAEC71002907DA0A460021BD
:10214000DCF1000C61EB02012D2202E0220504D536
:102150002B228DF80420012203E0E20701D0202287
:10216000F7E7904659E00A2102E010220DE0102125
:102170004FF0000A00910BE010224FF0000A44F0EB
:1021800004040827009203E008224FF0000A00929E
:10219000C4F30252022A05D059F804CB0021032AC5
:1021A00008D009E009F1070121F00702F2E802C1B5
:1021B000914605E01FFA8CFC042A01D10CF0FF0CBB
:1021C0004FF00008220728D5702806D0009B83F026
:1021D000100353EA0A0305D00EE040228DF80420D4
:1021E000012208E05CEA010206D030228DF80420CA
:1021F0008DF8050002229046009B83F0080353EA05
:102200000A030AD15CEA010201D1620705D5302236
:102210008DF804204FF001087F1E582804D034A008
:1022200003900EA802900DE036A0F9E753466046F1
:10223000009AFEF704F984460398825C0298401ED7
:10224000029002705CEA0100F0D1029806A9081A17
:1022500000F1200A600702D524F4803400E0012751
:10226000574502DDA7EB0A0000E0002000EB0A0161
:10227000009005984144401A0590E00306D45B465F
:102280002146179A059800F0B3F90544002706E0A7
:1022900001A85A46C05D179990476D1C7F1C4745A1
:1022A000F6DBE0030CD55B462146179A059800F053
:1022B0009FF9054404E030205A46179990476D1C59
:1022C0000099481E00900029F5DC08E00298029968
:1022D0005A460078491C0291179990476D1CBAF133
:1022E0000001AAF1010AF1DC65E100000928010002
:1022F000303132333435363738396162636465667C
:10230000000000003031323334353637383941423D
:10231000434445460000000000F058F90544761C8F
:10232000307800287FF4ECAD19B02846BDE8F08F76
:10233000620700D4062709F1070222F0070CFCE827
:102340000223E14603F000485FEA080C02D00FF2D6
:10235000702C0DE05FEA045C02D50FF2682C07E0F8
:102360005FEAC47C02D00FF2602C01E0AFF2700C87
:102370004FF0FF3823F00043CDF850C065280CD053
:1023800006DC452809D046281DD047283DD13DE030
:10239000662818D067287ED138E00021112F01DB94
:1023A000112000E0781CCDE9000106A90EA8FFF776
:1023B000DDFCDDE90F010E9A03910021009207F187
:1023C000010A04914DE04FF000400097CDE9011063
:1023D00006A90EA8FFF7CAFCDDE90F0203920E9BC7
:1023E00011990022DDF80CA00093049211B9791C18
:1023F00000EB010AB7EB0A0004D4C0F1FF3007F18B
:10240000010A0490AAEB0700019044E0012F00DAD2
:1024100001270021112F01DD112000E03846CDE910
:10242000000106A90EA8FFF7A1FCDDE90F010E9A35
:102430000391002104910092BA4621070CD403991C
:10244000514500DA8A46BAF1010F05DD009AAAF17A
:102450000101515C302908D0B84202DA10F1040FB2
:1024600006DA0121CDE9011015E0AAF10101E9E741
:10247000002805DC049901440491AAEB000102E064
:10248000411C514500DD8A460499401A401C0190C8
:102490004FF000400290200704D40198504501DB22
:1024A000CDF8048000208DF84F0002980DF14F0701
:1024B000B0F1004F25D02B200E9002984FF002086B
:1024C00000280CDA404202902D200E9007E00A21ED
:1024D0000298FDF79EFF3031029007F8011DB8F118
:1024E0000001A8F10108F2DC02980028EFD1791E62
:1024F0000E980870307800F0200040F0450007F892
:10250000020D12A8C01B00F107081498007800B152
:10251000012000EB0A01019801EBE07105984144AC
:10252000401A401E0590E00306D45B462146179AE8
:10253000059800F05DF805441498007818B15A46E3
:10254000179990476D1CE00324D55B462146179AE6
:10255000059800F04DF805441CE00498002807DBBE
:10256000DDE90301884203DD0098405C179901E032
:10257000179930205A469047049805F10105401CF0
:1025800004900198401E019004D12E205A461799BC
:1025900090476D1CBAF10001AAF1010ADDDC05E0EB
:1025A00017F8010B5A46179990476D1CB8F10001B6
:1025B000A8F10108F4DC5B462146179A0598ABE6C2
:1025C0002D0000002B000000200000002DE9F0414C
:1025D000044600251E461746880404D405E0394603
:1025E0002020B0476D1C641EF9D52846BDE8F08157
:1025F0002DE9F041044600251E469046C80301D54A
:10260000302700E02027880404D505E041463846FD
:10261000B0476D1C641EF9D52846BDE8F0810A68F4
:10262000531C0B6010707047012805D04031C8B2B0
:1026300040F0800000F036B88031C8B2FAE710B53B
:102640003220FEF799F8332000F02CF80120FEF735
:1026500093F8322000F026F80120FEF78DF82820AC
:1026600000F020F80220FEF787F8012000F01AF8A9
:102670000520FEF781F8062000F014F80220FEF78E
:102680007BF80C2000F00EF80220FEF775F802200F
:1026900000F008F80520FEF76FF8BDE81040802034
:1026A000AFF300801CB500F0F00141F00C028DF892
:1026B000042041F0080100018DF8051040F00C01E4
:1026C0008DF8061040F008008DF807006420009097
:1026D000042301AA4E210248FEF772FA1CBD000035
:1026E0002C0000201CB500F0F00141F00D028DF827
:1026F000042041F0090100018DF8051040F00D01A2
:102700008DF8061040F009008DF807006420009055
:10271000042301AA4E210248FEF752FA1CBD000014
:102720002C00002010B5044602E0641CFFF7DAFF1D
:1027300020780028F9D110BDFEF70EFBFFF73AFA1A
:10274000FFF76EF9FFF7BCF92B482A494FF4804296
:1027500001602A49416000218160C0E903124161A2
:102760008161C1610162FEF767F908B172B6FEE7E7
:102770004FF47A70FEF700F8FFF761FF00210120A7
:10278000FFF752FF1EA0FFF7CDFF02210846FFF71B
:102790004BFF1FA0FFF7C6FF0D210220FFF744FFEC
:1027A0001DA0FFF7BFFF1D4D1D4C4FF4FA76012110
:1027B0002846FFF7BBF9FEF739F9A168401AB04285
:1027C000F5D3FEF733F9A060E068FDF7F3FD0246AC
:1027D00009480B4613A19C30FFF794FA0721022009
:1027E000FFF722FF04489C30FFF79CFFFEF7A0FF95
:1027F000DDE70000005400402C000020A08601000E
:102800002F2A2D5155414E47204855592D2A2F002A
:102810004449533A20000000636D00000008014065
:1028200000000020252E3266000000000102020395
:102830000405060708090A0B0C0D0E0F1010000006
:102840000000000000000102030406070809000060
:1028500000000102030400007828000800000020A6
:102860002C0000004C1D0008A42800082C000020AB
:10287000D40400005C1D00080000000000000000FF
:102880000000000000000000000000000101000046
:102890000000000001000000100000000000000027
:0428A0000024F4001C
:04000005080000ED02
:00000001FF
